{
  "_format": "hh-sol-artifact-1",
  "contractName": "ChildNaming",
  "sourceName": "contracts/ChildNaming.sol",
  "abi": [
    {
      "anonymous": false,
      "inputs": [
        {
          "indexed": false,
          "internalType": "string",
          "name": "name",
          "type": "string"
        }
      ],
      "name": "NameAdded",
      "type": "event"
    },
    {
      "inputs": [
        {
          "internalType": "string",
          "name": "_name",
          "type": "string"
        }
      ],
      "name": "addName",
      "outputs": [],
      "stateMutability": "nonpayable",
      "type": "function"
    },
    {
      "inputs": [],
      "name": "getNames",
      "outputs": [
        {
          "internalType": "string[]",
          "name": "",
          "type": "string[]"
        }
      ],
      "stateMutability": "view",
      "type": "function"
    },
    {
      "inputs": [
        {
          "internalType": "string",
          "name": "_name",
          "type": "string"
        }
      ],
      "name": "isNameTaken",
      "outputs": [
        {
          "internalType": "bool",
          "name": "",
          "type": "bool"
        }
      ],
      "stateMutability": "view",
      "type": "function"
    }
  ],
  "bytecode": "0x608060405234801561001057600080fd5b506109c4806100206000396000f3fe608060405234801561001057600080fd5b50600436106100415760003560e01c806311456b4714610046578063b3da4e3414610062578063cd838f0f14610092575b600080fd5b610060600480360381019061005b9190610351565b6100b0565b005b61007c60048036038101906100779190610351565b6101d2565b60405161008991906103b9565b60405180910390f35b61009a610209565b6040516100a79190610526565b60405180910390f35b600082826040516100c2929190610587565b908152602001604051809103902060009054906101000a900460ff161561011e576040517f08c379a0000000000000000000000000000000000000000000000000000000008152600401610115906105fd565b60405180910390fd5b600160008383604051610132929190610587565b908152602001604051809103902060006101000a81548160ff021916908315150217905550600182829091806001815401808255809150506001900390600052602060002001600090919290919290919290919250918261019492919061086d565b507f2578d3cc27afea711c20a10a0f61285911c3e03afcd6f2fa7f871ab9affa351282826040516101c692919061096a565b60405180910390a15050565b60008083836040516101e5929190610587565b908152602001604051809103902060009054906101000a900460ff16905092915050565b60606001805480602002602001604051908101604052809291908181526020016000905b828210156102d957838290600052602060002001805461024c90610686565b80601f016020809104026020016040519081016040528092919081815260200182805461027890610686565b80156102c55780601f1061029a576101008083540402835291602001916102c5565b820191906000526020600020905b8154815290600101906020018083116102a857829003601f168201915b50505050508152602001906001019061022d565b50505050905090565b600080fd5b600080fd5b600080fd5b600080fd5b600080fd5b60008083601f840112610311576103106102ec565b5b8235905067ffffffffffffffff81111561032e5761032d6102f1565b5b60208301915083600182028301111561034a576103496102f6565b5b9250929050565b60008060208385031215610368576103676102e2565b5b600083013567ffffffffffffffff811115610386576103856102e7565b5b610392858286016102fb565b92509250509250929050565b60008115159050919050565b6103b38161039e565b82525050565b60006020820190506103ce60008301846103aa565b92915050565b600081519050919050565b600082825260208201905092915050565b6000819050602082019050919050565b600081519050919050565b600082825260208201905092915050565b60005b8381101561043a57808201518184015260208101905061041f565b60008484015250505050565b6000601f19601f8301169050919050565b600061046282610400565b61046c818561040b565b935061047c81856020860161041c565b61048581610446565b840191505092915050565b600061049c8383610457565b905092915050565b6000602082019050919050565b60006104bc826103d4565b6104c681856103df565b9350836020820285016104d8856103f0565b8060005b8581101561051457848403895281516104f58582610490565b9450610500836104a4565b925060208a019950506001810190506104dc565b50829750879550505050505092915050565b6000602082019050818103600083015261054081846104b1565b905092915050565b600081905092915050565b82818337600083830152505050565b600061056e8385610548565b935061057b838584610553565b82840190509392505050565b6000610594828486610562565b91508190509392505050565b600082825260208201905092915050565b7f4e616d6520616c72656164792074616b656e0000000000000000000000000000600082015250565b60006105e76012836105a0565b91506105f2826105b1565b602082019050919050565b60006020820190508181036000830152610616816105da565b9050919050565b600082905092915050565b7f4e487b7100000000000000000000000000000000000000000000000000000000600052604160045260246000fd5b7f4e487b7100000000000000000000000000000000000000000000000000000000600052602260045260246000fd5b6000600282049050600182168061069e57607f821691505b6020821081036106b1576106b0610657565b5b50919050565b60008190508160005260206000209050919050565b60006020601f8301049050919050565b600082821b905092915050565b6000600883026107197fffffffffffffffffffffffffffffffffffffffffffffffffffffffffffffffff826106dc565b61072386836106dc565b95508019841693508086168417925050509392505050565b6000819050919050565b6000819050919050565b600061076a6107656107608461073b565b610745565b61073b565b9050919050565b6000819050919050565b6107848361074f565b61079861079082610771565b8484546106e9565b825550505050565b600090565b6107ad6107a0565b6107b881848461077b565b505050565b5b818110156107dc576107d16000826107a5565b6001810190506107be565b5050565b601f821115610821576107f2816106b7565b6107fb846106cc565b8101602085101561080a578190505b61081e610816856106cc565b8301826107bd565b50505b505050565b600082821c905092915050565b600061084460001984600802610826565b1980831691505092915050565b600061085d8383610833565b9150826002028217905092915050565b610877838361061d565b67ffffffffffffffff8111156108905761088f610628565b5b61089a8254610686565b6108a58282856107e0565b6000601f8311600181146108d457600084156108c2578287013590505b6108cc8582610851565b865550610934565b601f1984166108e2866106b7565b60005b8281101561090a578489013582556001820191506020850194506020810190506108e5565b868310156109275784890135610923601f891682610833565b8355505b6001600288020188555050505b50505050505050565b600061094983856105a0565b9350610956838584610553565b61095f83610446565b840190509392505050565b6000602082019050818103600083015261098581848661093d565b9050939250505056fea2646970667358221220ee859332890f73c34408000c12f4201a5e3f28858b4664368ed08196d0246d9d64736f6c63430008180033",
  "linkReferences": {},
  "deployedLinkReferences": {}
}